:100000004AC1000066C1000064C1000062C1000076
:1000100060C100005EC100005CC100005AC1000068
:1000200058C1000056C1000054C1000052C1000078
:1000300050C100000C94300F0BC200004AC10000F8
:1000400048C1000046C10000B2C1000042C100002A
:1000500040C100003EC100003CC100003AC10000A8
:1000600038C1000036C100000C944B010C946901AA
:100070000C9469010C9469010C9469010C94690158
:100080000C9469010C9469010C9469010C94690148
:100090000C9469010C9469010C9469010C94300F63
:1000A0000C9428020C9469010C9469010C94690168
:1000B0000C94D7010C9469010C9469010C946901AA
:1000C0000C9469010C9469010C9469010C94690108
:1000D0000000000000000000434F4E534F4C45000D
:1000E0000000200820082008200820081E082008FA
:1000F00020081E0800001E0800010000000100008A
:10010000004E554C4C444556000000200820082065
:1001100008200820081E08200820081E0800001ECD
:10012000080002000000000000004E414D45535001
:10013000414345002E0DD60E1E081E081E081E083F
:100140001E081E081E0800001E08006E616D696E04
:100150006974202864657669636573293A0D0A001D
:100160004552524F522047455453544B2025730A51
:10017000006E616D6573706163653A2064657669D0
:100180006365206E616D6520257320746F6F206C30
:100190006F6E670D0A006E616D6573706163653A1D
:1001A0002063616E6E6F74206D6F756E74202564B0
:1001B0000D0A000A0A416C6C20757365722070721A
:1001C0006F636573736573206861766520636F6D17
:1001D000706C657465642E0A0A000A57656C636F5B
:1001E0006D6520746F2058696E75210A0A0D0958D3
:1001F000696E75204F5320436F7079726967687418
:100200002028632920323031322C20323031350A17
:100210000D09446F75676C617320452E20436F6D27
:10022000657220616E64204352432050726573737F
:100230002C20496E632E0A0A0D0958696E75204FED
:100240005320666F72204156522061746D6567615C
:10025000333238702076302E312028632920323016
:1002600032300A0D0952616661656C2049676E6122
:1002700063696F205A7572697461203C72616661AE
:100280004066692E756E636F6D612E6564752E61B3
:10029000723E0A0A0D0011241FBECFEFD8E0DEBF68
:1002A000CDBF11E0A0E0B1E0EEEFFCE202C00590AE
:1002B0000D92AA36B107D9F724E0AAE6B1E001C051
:1002C0001D92A43DB207E1F70C9457060E94A10FBE
:1002D000FFC296CEFF93EF93FC0100820FB6F89415
:1002E00004A21182228233824482558266827782FE
:1002F00080869186A286B386C486D586E686F786F2
:10030000008B118B228B338B448B558B668B778BB9
:10031000808F918FA28FB38FC48FD58F0F90068E51
:100320000F90078E0DB600A20EB601A2FB0100A031
:100330000DBE01A00EBE078C0F92068C0F92D58DBC
:10034000C48DB38DA28D918D808D778966895589F5
:1003500044893389228911890089F784E684D58408
:10036000C484B384A284918480847780668055801D
:10037000448033802280118004A00FBE0080EF9162
:10038000FF910895E0910001F0910101158289E14A
:10039000848386E0828388E181830895E09100016F
:1003A000F0910101908195FFFDCF868308951F9202
:1003B0000F920FB60F9211248F938091C6008093F5
:1003C0007A018F910F900FBE0F901F901895A4E0A7
:1003D000B0E0EDEEF1E00C94421219821A821B8219
:1003E0001C8219821A821B821C8209811A812B812C
:1003F0003C81061717072807390770F400000981A8
:100400001A812B813C810F5F1F4F2F4F3F4F098374
:100410001A832B833C83E9CF2496E4E00C945E128C
:1004200080E284B92D9A60E47DE083E090E0CFDF44
:100430002D9860E47DE083E090E0C9CF1092A301A5
:100440001092A4011092A5011092A60181E00895D6
:100450001F920F920FB60F9211242F933F934F9339
:100460005F936F937F938F939F93AF93BF93EF931C
:10047000FF938091AD019091AE01A091AF01B09139
:10048000B0010196A11DB11D8093AD019093AE0105
:10049000A093AF01B093B001883E9340A105B10590
:1004A000D8F08091B1019091B201A091B301B091C7
:1004B000B4010196A11DB11D8093B1019093B201C9
:1004C000A093B301B093B4011092AD011092AE01AC
:1004D0001092AF011092B0018091A7019091A801F4
:1004E00026E0289FF001299FF00D1124EB5FFB4FC0
:1004F000828193818630910584F4289FF001299FA1
:10050000F00D1124EB5FFB4F808191810197918366
:100510008083892B11F40E941E0C8091A901909177
:10052000AA01A091AB01B091AC010197A109B10959
:1005300049F08093A9019093AA01A093AB01B093D5
:10054000AC010DC081E090E0A0E0B0E08093A90193
:100550009093AA01A093AB01B093AC0179D7FF911E
:10056000EF91BF91AF919F918F917F916F915F912B
:100570004F913F912F910F900FBE0F901F901895A4
:10058000A7D69093A8018093A70181E090E0A0E016
:10059000B0E08093A9019093AA01A093AB01B0931E
:1005A000AC011092B1011092B2011092B3011092FD
:1005B000B4011092AD011092AE011092AF011092F1
:1005C000B00185B5836085BD84B5826084BD8FE34D
:1005D00087BDEEE6F0E08081826080830895CF924F
:1005E000DF92EF92FF92CF93DF936B017C011ED5D8
:1005F000D82F83E0C816D104E104F10420F08D2F38
:1006000018D5CFEF11C029E22C9DC0012D9D900D72
:10061000112480539F4FFC0176960590F491E02DB4
:100620000995C82F8D2F05D58C2FDF91CF91FF9085
:10063000EF90DF90CF900895A6E0B0E0E2E2F3E023
:100640000C9434122B8D29838C8CED8CFE8C09A19B
:100650003AA13E83EBD4982E40E4E416F1041CF456
:1006600070E4E72EF12C83E0E80EF11C9CEFE92208
:1006700027010F2C000C66087708C301B20169D26C
:100680001C01019679F480E691E00E94570C892DB7
:10069000D0D4FFEFFA832FEF2B833FEF3C834FEF54
:1006A0004D8309C130916A0120916B0180916C01E9
:1006B00090916D01A12CB12C1BE5632F722F26E0C8
:1006C00030E040E050E00E940E126B017C016A8332
:1006D000DB82EC82FD82169FF001179FF00D112442
:1006E000E754FE4F80819181B701A6014F5F5F4FB4
:1006F0006F4F7F4F892B79F440936A0150936B01C0
:1007000060936C0170936D018FEFC816D806E806F0
:10071000F806A1F4B8CF342F252FCB01EFEFAE1A96
:10072000BE0AF6E0AF16B10441F640936A01509359
:100730006B0160936C0190936D01A5CF2F8D38A153
:10074000121613060CF09FCF8091DB039091DC030F
:10075000A091DD03B091DE030196A11DB11D809330
:10076000DB039093DC03A093DD03B093DE0385E00D
:1007700090E0918380833383228331AE20AE42AEFA
:1007800053AE64AE75AEDF01AB5BBF4F1C92A02FC2
:10079000BE818F0180E090E02D91F801E80FF91FF4
:1007A00026AF222321F0019687309105A9F72BE58A
:1007B0002C9DC0012D9D900D1124FC01E754FE4F8E
:1007C0005F01EA5BFF4F8FEF9FEF91838083B8D18A
:1007D000F501E85BFF4F60837183828393833896D2
:1007E00010823196118210823296118210823296D6
:1007F000118210828AEAF10180838BA19CA1F5010C
:1008000093A782A720E030E0F801E20FF31F1482E3
:100810002F5F3F4F26323105B9F72BE52C9DF001B4
:100820002D9DF00D1124E754FE4F298124AB85AA9C
:1008300026A387A220E820A7DE01959620E030E0DD
:100840002817390764F44D915D91F901EE0FFF1FF0
:10085000E00FF11F55A744A72F5F3F4FF1CFFC01D9
:100860007696EE0FFF1F4BE54C9D90014D9D300D90
:100870001124E20FF31FE754FE4F11821082F90199
:10088000E754FE4F848F958F2B513E4F228F338F2D
:100890008CE19CE0D10111978C9311979C93119757
:1008A00039813C9311978C9245E0241A310824A297
:1008B00035A2892DBED36A817B818C819D8126964C
:1008C000E2E10C94501261E070E080E090E0089565
:1008D00037D1B8C3A0E0B0E0E0E7F4E00C943A12FE
:1008E000EC016A017B01A2D3C114D104E104F1043B
:1008F00009F447C02091010430910204C217D307C4
:1009000008F43FC020910304309104042C173D07E4
:10091000C0F197E0C90ED11CE11CF11C98EFC9226F
:10092000A601DD0C660B770BE091FB03F091FC0355
:10093000ABEFB3E0309741F0EC17FD0740F5DF0176
:100940000190F081E02DF6CF93E0AB3FB907D1F1F4
:100950001296CD90DD90ED90FC9015978D010B2EA9
:10096000000C220B330B0C0D1D1D2E1D3F1D6E01A7
:100970000D2E000CEE08FF08C016D106E206F306A5
:1009800018F457D38FEF82C0309741F41EC093E024
:10099000AB3FB907E9F600E010E098016E010D2EBB
:1009A000000CEE08FF08C40ED51EE61EF71E4F0110
:1009B0000F2E000CAA08BB088C149D04AE04BF04C3
:1009C00020F4DFCF00E010E09801C090FD03D0904C
:1009D000FE03E090FF03F0900004C40ED51EE61E57
:1009E000F71EC092FD03D092FE03E092FF03F09247
:1009F00000046E010D2E000CEE08FF08C016D10693
:100A0000E206F30691F412960D911D912D913C9101
:100A10001597400F511F621F731F12964D935D93E0
:100A20006D937C931597ED0108C0F983E8834A83A1
:100A30005B836C837D83CD93DC934A815B816C8186
:100A40007D818E010D2E000C220B330B040F151F20
:100A5000261F371F6F010F2E000CEE08FF080C1524
:100A60001D052E053F0581F4028113812481358106
:100A7000400F511F621F731F4A835B836C837D830A
:100A80002081318139832883D4D281E0CDB7DEB78C
:100A9000ECE00C94561226E0AC01249FC001259F87
:100AA000900D1124FC01EB5FFB4F428153814630D6
:100AB00051051CF5BA01052E000C880B990B249FDB
:100AC000F001259FF00D1124EB5FFB4FA281B38154
:100AD00044815581249FF001259FF00D1124EB5F87
:100AE000FB4FB383A2832A9FF0012B9FF00D1124AB
:100AF000EB5FFB4F5583448308956FEF7FEFCB018E
:100B0000089546E0469FF001479FF00D1124EB5FEA
:100B1000FB4FA281B38124813581429FF001439F25
:100B2000F00D1124EB5FFB4FB383A2834A9FF001CA
:100B30004B9FF00D1124EB5FFB4F35832483089509
:100B40006091B5017091B6018091B7019091B801A3
:100B50000895A0E0B0E0EFEAF5E00C943E126B01DE
:100B60007C0164D2C114D104E104F10449F197E09D
:100B7000C90ED11CE11CF11C98EFC9220D2C000CF0
:100B8000EE08FF08E091FB03F091FC03A0E0B0E069
:100B9000C0E0D0E02BEF33E0309781F04281538109
:100BA000648175814C155D056E057F0510F0D901D6
:100BB000EF019F010190F081E02DEECF209721F40D
:100BC00038D28FEF9FEF41C00A811B812C813D817C
:100BD000C016D106E206F30629F4288139812D9347
:100BE0003C9311C00C191D092E093F090A831B8370
:100BF0002C833D83AE01DD0F660B770B040F151FB1
:100C0000261F371FE8014091FD035091FE036091BC
:100C1000FF03709100044C195D096E097F09409330
:100C2000FD035093FE036093FF037093000401D211
:100C3000D701C6010497A109B109AE01DD0F660B0A
:100C4000770B840F951FA61FB71FCDB7DEB7E8E05F
:100C50000C945A12CF92DF92EF92FF92CF93DF93D0
:100C60006B017C01E3D1D82F83E0C816D104E104E5
:100C7000F10420F08D2FDDD1CFEF11C029E22C9DA2
:100C8000C0012D9D900D112480539F4FFC01729641
:100C90000590F491E02D0995C82F8D2FCAD18C2F86
:100CA000DF91CF91FF90EF90DF90CF9008957BD3AD
:100CB00088E191E09F938F93A5D28AED91E0F7D5DB
:100CC000D0D21092DB031092DC031092DD0310925D
:100CD000DE03109273041092740410927504109243
:100CE0007604E9EBF1E00F900F901182108216AEBE
:100CF00011AE10AE13821282E55AFF4F83E0EB3D36
:100D0000F80799F7CFEDD3E00BEF13E018821982C3
:100D10001A821B821C82DCD29E838D8327960C173D
:100D20001D07A1F78BDBD4D29093720480937104DA
:100D300060E070E0CB018EDF61E070E080E090E089
:100D400089DF62E070E080E090E084DF19DCE09110
:100D5000FB03F091FC0380E090E0DC01309761F050
:100D60004281538164817581840F951FA61FB71F2F
:100D70000190F081E02DF2CFBF93AF939F938F93BB
:100D800086E291E09F938F933DD21F921F921F9214
:100D90001F928CE391E09F938F931F928AE08F9331
:100DA0001F9280E48F931F921F9246DC2BE5269FB3
:100DB000F001279FF00D1124E754FE4F81E090E0F1
:100DC0009183808338D11F921F921F921F9282E4D9
:100DD00091E09F938F931F9284E18F9381E08F9393
:100DE0001F9281EA9FE09F938F9326DC02D48DB7F8
:100DF0009EB74E960FB6F8949EBF0FBE8DBFFFCF25
:100E00001F93CF93DF93FA0136973B9708F054C0B6
:100E1000663071058105910508F04EC03BE5369FAF
:100E2000F001379FF00D1124E754FE4F0190F0813F
:100E3000E02DEF2B09F440C036E0349FF001359FE0
:100E4000F00D1124EB5FFB4F42815381022E000C09
:100E5000330BC6E016E0C49FF001C59FF00D1124CE
:100E6000EB5FFB4FA081B181A217B30718F042815D
:100E70005381F0CFC481D581169FD001179FB00D4B
:100E80001124AB5FBB4F13965C934E93129715964C
:100E9000DC93CE9314972D933C931C9FD0011D9F00
:100EA000B00D1124AB5FBB4F13967C936E931297DA
:100EB0007583648381E001C08FEFDF91CF911F9133
:100EC00008954F925F926F927F928F929F92AF920E
:100ED000BF92CF92DF92EF92FF92CF93DF9300D039
:100EE00000D0CDB7DEB76B017C01CA0106970B9726
:100EF00008F088C086E0C816D104E104F10408F0C7
:100F000081C08BE58C9DF0018D9DF00D1124E7547F
:100F1000FE4F80819181892B09F474C04A01052E0E
:100F2000000CAA08BB0886E0849FF001859FF00DA5
:100F30001124EB5FFB4F82819381092E000CAA0BD9
:100F4000BB0B4F5F5F4F2A01550F66087708498238
:100F50005A826B827C8266E049805A806B807C80FA
:100F600084159505A605B70569F566E06C9DF00149
:100F70006D9DF00D1124EB5FFB4F538242829582F1
:100F8000848231832083689DA001699D500D1124C6
:100F9000FA01EB5FFB4FD382C282649DF001659D35
:100FA000F00D1124EB5FFB4FD582C48284159505AB
:100FB000A605B70529F180819181821B930B91834E
:100FC00080831EC0689FF001699FF00D1124EB5FC4
:100FD000FB4F408151812417350758F0241B350BF6
:100FE000428153814C015D01CA01550FAA0BBB0B15
:100FF000B3CF2C013D0189819A81AB81BC81B5CFF2
:1010000081E001C08FEF0F900F900F900F90DF9154
:10101000CF91FF90EF90DF90CF90BF90AF909F90D7
:101020008F907F906F905F904F9008958FB7F89456
:1010300008958FBF089578940895FFCF8FEF089596
:1010400081E00895AF92BF92CF92DF92EF92FF922C
:101050001F93CF93DF936B017C01E8DF182F86E0AD
:10106000C816D104E104F10488F48BE58C9DF001ED
:101070008D9DF00D1124E754FE4F80819181892BC5
:1010800029F0C114D104E104F10421F4812FD1DF4E
:101090008FEF9DC08091DB039091DC03A091DD0375
:1010A000B091DE030197A109B1098093DB0390930E
:1010B000DC03A093DD03B093DE030297A105B10525
:1010C0000CF4E8D38BE58C9D50018D9DB00C112460
:1010D000F501EF5FFD4F6081718182819381A701EE
:1010E0009601BCD2C0E0D0E0FE01EA0DFB1DE65F38
:1010F000FD4F60817181072E000C880B990B6FDA10
:101100002296C630D10581F78BE58C9DE0018D9D3F
:10111000D00D1124C754DE4F4AAD5BAD6CAD7DAD33
:10112000495F5F4F6F4F7F4F487F052E000C660B66
:10113000770B88AD99AD092E000CAA0BBB0B04965A
:10114000A11DB11D841B950BA60BB70BC3DB8881BA
:1011500099818430910581F030F48130910549F016
:10116000029729F127C08630910551F0079721F0A9
:1011700021C0198218826CD1C701B6010FD31AC0E1
:10118000CA5BDF4F8881998127E0289FF001299F62
:10119000F00D1124E152FC4F81819281A381B48131
:1011A0000196A11DB11D81839283A383B483C701DE
:1011B000B601A7DC8BE58C9DF0018D9DF00D11240F
:1011C000E754FE4F11821082812F33DF81E0DF91DF
:1011D000CF911F91FF90EF90DF90CF90BF90AF9095
:1011E0000895CF93DF93C82F21DFD82FCA3011F491
:1011F0008DE0D4D88C2FD2D88D2F1BDF81E0DF91EA
:10120000CF910895A1E5B0E0E8E0F9E00C94401238
:101210008E01065A1F4FF801E190F1908F0121E5F0
:1012200030E040E050E060E070E0CE0101960E94C6
:10123000CD139801A70160E570E0CE0101960E94F0
:10124000D4138E010F5F1F4FF80181918F01882306
:1012500011F0C7DFF9CF81E0CF5ADF4FE6E00C9401
:101260005C120F931F93CF93DF9384ED94E0A0E87B
:10127000BB270196A11DB11DEC0190930204809340
:1012800001042FEE38E03093040420930304EBEFC5
:10129000F3E09183808319821882092E000CAA0B37
:1012A000BB0B4FEE58E060E070E08A019B01081B29
:1012B000190B2A0B3B0B0A831B832C833D83028370
:1012C000138324833583DF91CF911F910F9108956C
:1012D00020910201309103012231310544F5C90109
:1012E00002969093030180930201A9014F5F5F4F23
:1012F00066E0629FF001639FF00D1124EB5FFB4FEE
:10130000538342838FEF9FEF958384839183808300
:10131000649FF001659FF00D1124EB5FFB4F9383F9
:1013200082833583248311821082C90108958FEF4F
:101330009FEF08958F929F92AF92BF92EF92FF928C
:101340000F931F93CF93DF934B015C018A017901C7
:101350006DDED82F83E088169104A104B10420F03B
:101360008D2F67DECFEF13C029E2289DC001299D94
:10137000900D112480539F4FFC0174960590F491B9
:10138000E02DA701B8010995C82F8D2F52DE8C2FB3
:10139000DF91CF911F910F91FF90EF90BF90AF9091
:1013A0009F908F900895F8943BD83AD80E94C2013C
:1013B0008ACACF939C01265031092B303105F8F4AD
:1013C000C6E0C89FF001C99FF00D1124EB5FFB4FF1
:1013D000228133812630310594F45DDBC69FF00114
:1013E000C79FF00D1124EB5FFB4F2FEF3FEF3583CD
:1013F000248333832283462F372F282F04C04FEFB7
:101400003FEF2FEF9FEF642F732F822FCF9108951F
:101410006630710581059105C8F42BE5269FF00122
:10142000279FF00D1124E754FE4F20813181232B9B
:1014300069F022E030E031832083409171045091C3
:1014400072042281DDDC04D081E008958FEF0895DD
:10145000CF92DF92EF92FF92809173049091740487
:10146000A0917504B0917604181619061A061B0689
:1014700024F481E0809377046BC0C090B501D090D4
:10148000B601E090B701F090B8018BE58C9DF001BA
:101490008D9DF00D1124E754FE4F808191810197BD
:1014A00029F522813381409171045091720486E0C4
:1014B000849FD001859FB00D1124AB5FBB4F129666
:1014C0006D917C911397869FD001879FB00D112459
:1014D000AB5FBB4F8D919C9182179307C8F182E05F
:1014E00090E091838083C701B6018ADC809171040A
:1014F000909172045EDF6093B5017093B6018093A2
:10150000B7019093B8012BE5269FD001279FB00D1E
:101510001124FD01E754FE4F41E050E05183408328
:1015200041E050E060E070E04093A9015093AA01CF
:101530006093AB017093AC01BD0163547E4F2C9D51
:10154000C0012D9D900D112483549E4F0E946A016D
:10155000FF90EF90DF90CF90089561307105810585
:10156000910531F06230710581059105F1F03FC0C0
:101570008091730490917404A0917504B0917604E5
:10158000AC01BD014F5F5F4F6F4F7F4F40937304BE
:10159000509374046093750470937604892B8A2B9E
:1015A0008B2B19F51092770420C0809173049091D1
:1015B0007404A0917504B0917604181619061A06E1
:1015C0001B06ACF40197A109B109809373049093B1
:1015D0007404A0937504B0937604892B8A2B8B2B0B
:1015E00021F480917704811133DF81E008958FEF3A
:1015F0000895CF92DF92EF92FF921F93CF93DF93E4
:101600006B017C0113DD182F86E0C816D104E104BC
:10161000F10470F48BE58C9DF0018D9DF00D11248B
:10162000E754FE4F80819181009711F0059729F0D2
:10163000812FFFDC8FEF9FEF09C0D281C381C701EB
:10164000B601E6DE812FF5DC8D2F9C2FDF91CF9147
:101650001F91FF90EF90DF90CF9008958F929F920F
:10166000AF92BF92CF92DF92EF92FF92CF934B0156
:101670005C0169017A01DADCC82F86E088169104E2
:10168000A104B10490F48BE5889DF001899DF00DD3
:101690001124E754FE4F80819181009731F0DF01E2
:1016A000A05BBF4F2C91222321F08C2FC2DC8FEF47
:1016B00016C0E45BFF4FC082D182E282F38221E058
:1016C0002C938330910529F0079731F4C501B401BB
:1016D00065D0C501B4019CDE8C2FABDC81E0CF91DD
:1016E000FF90EF90DF90CF90BF90AF909F908F9042
:1016F0000895CF92DF92EF92FF92CF93DF9397FD01
:1017000033C06B017C01672B682B692B11F4C6D0A9
:1017100029C08CDCD82F4091A7015091A80160917D
:10172000B5017091B6018091B7019091B801960111
:10173000C8DBC82F8F3F19F48D2F7BDC16C080913A
:10174000B5019091B6012BE5289FF001299FF00D7E
:101750001124E754FE4F84E090E09183808378DE8B
:101760008D2F67DCC1E001C0CFEF8C2FDF91CF91CF
:10177000FF90EF90DF90CF9008956C3924EC7207C2
:1017800020E28207910540F49B01AC01A8EEB3E092
:1017900061D6AFDF81E008958FEF0895CF92DF9299
:1017A000EF92FF92CF936B017C0140DCC82F86E063
:1017B000C816D104E104F10488F48BE58C9DF00196
:1017C0008D9DF00D1124E754FE4F8081918100978B
:1017D00029F08430910531F0079721F08C2F29DC16
:1017E0008FEF24C026E02C9DD0012D9DB00D11243B
:1017F000AB5FBB4F12968D919C91139786309105EC
:101800007CF4289FF001299FF00D1124EB5FFB4F22
:10181000208131818D919C91820F931F91838083D0
:10182000C701B6016ED98C2F04DC81E0CF91FF9007
:10183000EF90DF90CF90089583D904CCCF9361E0EF
:1018400070E080E090E089DEC6E08091A701909191
:10185000A801C89FF001C99FF00D1124EB5FFB4F59
:10186000228133812630310574F4C29FF001C39F79
:10187000F00D1124EB5FFB4F20813181232B19F4F4
:1018800098DDC6DDE2CF62E070E080E090E065DEEA
:10189000CF91089583EB91E00AD0CFCBCF93C6DBF5
:1018A000C82FD6DD8C2FC5DB81E0CF910895089538
:1018B000CF93DF93C82FD0E0C858DB4FB7DB9881B8
:1018C00019163CF0B6DB61E070E080E090E011DFDB
:1018D000F5CF91509883ADDBDF91CF910895CF93F1
:1018E000C82FA4DBEC2FF0E0E858FB4F90819F5FFE
:1018F00090839FDBCF9108950F931F9300E010E03A
:101900009801041715072607370764F4DC01ED91E9
:10191000CD010F5F1F4F2F4F3F4FE111F2CFB801A5
:10192000C90104C06FEF7FEF8FEF9FEF1F910F9101
:101930000895A6E0B0E0EEE9FCE096C5182F9C8380
:101940001B0169017A0172DB082F40E150E060E081
:1019500070E0812F9C81D0DF4B015C0141E050E0C1
:1019600060E070E0C101C8DF2B013C012FEF82165F
:101970009206A206B20649F16F3F7F4F8F4F9F4FED
:1019800021F153E0C516D104E104F104F0F4809193
:101990007C0490917D04A0917E04B0917F048430FA
:1019A0009105A105B1058CF419831C811A8325E1E9
:1019B000289FA001299F500D11245E834D8320E0B4
:1019C00030E040E050E0BA0104C0802F32DB8FEFFE
:1019D00042C0481559056A057B059CF4E981FA81E6
:1019E0001191FA83E983ED81FE81E20FF31FE05844
:1019F000FB4F10834F5F5F4F6F4F7F4F2F5F3F4F06
:101A0000E8CF14141504160417045CF4F1012081C6
:101A100035E1389FF001399FF00D1124E058FB4F5C
:101A2000208B25E1289FF001299FF00D1124E0581B
:101A3000FB4FC18AD28AE38AF48A0196A11DB11DA7
:101A400080937C0490937D04A0937E04B0937F04E4
:101A5000802FEFDA81E02696E2E122C5A0E2B0E035
:101A6000E3E3FDE005C586E0E7E4F1E0DE015B9637
:101A700001900D928A95E1F710927C0410927D04FA
:101A800010927E0410927F048BE491E010DF80EDD1
:101A9000A82E80E0B82E88E090E09C01205D3040C8
:101AA0004901DE015B968E010F5F1F4FC12CD12CC7
:101AB000760138018D91F8018193882339F03FEF49
:101AC000C31AD30AE30AF30A8F01F4CFB4016A0DF3
:101AD0007B1D60537F4F4AE050E0CE0141964ED6C9
:101AE000FE017196BFEFCB1ADB0AEB0AFB0A20E17D
:101AF000C216D104E104F10464F481919FEB980FC4
:101B00009A3108F4805ED8018D938D018111EACF5E
:101B100009C030E1C316D104E104F10419F081E7F2
:101B200091E00DC0F50125913591459155916BE3FB
:101B300071E0C301FEDE8F3F19F486E991E0B7DE64
:101B4000F9E2AF0EB11C2BE4A21621E0B20609F0B7
:101B5000A8CF2FEF3FEFA9016BE371E087E491E09D
:101B6000E8DE81E0A096EEE09FC44F925F926F9214
:101B70007F928F929F92AF92BF92DF92EF92FF92ED
:101B80000F931F93CF93DF9300D000D01F92CDB758
:101B9000DEB7E0907C04F0907D0400917E0410910B
:101BA0007F04E982FA820B831C8320E834E0812CD5
:101BB000912C5401E980FA800B811C818E149F04C2
:101BC000A006B106ACF47C01F901412C512C320184
:101BD000D70141914423C1F00FEFE01AF00A5C9164
:101BE00045130AC01FEF411A510A610A710AF0CF6A
:101BF0006FEF7FEFCB0165C00FEF801A900AA00A4C
:101C0000B00A2B5E3F4FD6CF7D83D62E40E150E009
:101C100060E070E071DE698385E1889D8001899DC7
:101C2000100D112400571B4F40E150E060E070E0C0
:101C3000C80162DEA9812A2FAA0F330B440B550B72
:101C400024193509460957092B013C01B1E04B1A0B
:101C5000510861087108420E531E641E751EE1E1B1
:101C60004E165104610471041CF62B013C01D8018D
:101C7000ED2DFD8181E0481A5108610871081414A6
:101C80001504160417041CF48D918193F3CF1216DA
:101C90001306140615064CF4D7018D917D0181932E
:101CA0002150310941095109F2CF85E1889DF001A8
:101CB000899DF00D1124E058FB4F61897289838959
:101CC00094890F900F900F900F900F90DF91CF910C
:101CD0001F910F91FF90EF90DF90BF90AF909F907A
:101CE0008F907F906F905F904F900895CF92DF928A
:101CF000EF92FF92FB01C12CD12C7601C216D306C4
:101D0000E406F50664F46191DC016D93CD01662370
:101D100041F0BFEFCB1ADB0AEB0AFB0AEFCF8FEFE4
:101D200001C081E0FF90EF90DF90CF900895A0E197
:101D3000B0E0ECE9FEE09EC38B0149015A0120E1CD
:101D400030E040E050E0BC01CE010196CFDF8F3F94
:101D5000F1F0C12CD12C76010DC020E130E040E043
:101D600050E0B801CE010196C1DF8FEFC81AD80A42
:101D7000E80AF80A80917C0490917D04A0917E0489
:101D8000B0917F04C816D906EA06FB0614F08FEF5F
:101D90000AC0B801CE010196E8DE681579058A050A
:101DA0009B05D9F2862F6096ECE080C3A0E1B0E0FD
:101DB000EBEDFEE067C3FC01CB018A012591359173
:101DC00045915591BE016F5F7F4FB1DF682F880F3E
:101DD000770B880B990B6F3F2FEF720782079207E3
:101DE00031F09801AE014F5F5F4FA4DA01C08FEF71
:101DF0006096E4E063C3E0910401F0910501848101
:101E00008F7D848384818064848384818F778483BD
:101E100082818160828382818D7F828382818460DE
:101E200082838281806882830895E0910401F09129
:101E3000050184818E7F848384818D7F8483848166
:101E40008B7F84838481877F848382818064828383
:101E5000828186FDFDCF8081218190E0922B0895C3
:101E60001F920F920FB60F9211242F933F934F930F
:101E70005F936F937F938F939F93AF93BF93EF93F2
:101E8000FF938091780190917901609106017091A2
:101E90000701B0D2892B11F480E288D22091780119
:101EA000309179012F5F3F4F309379012093780172
:101EB000C90162E370E09ED2892B59F580917401CB
:101EC0009091750101968C33910529F090937501DD
:101ED000809374011EC0109275011092740180915C
:101EE00072019091730101968C33910529F09093C2
:101EF0007301809372010DC01092730110927201F0
:101F0000809170019091710101969093710180937D
:101F100070012A3F310521F4109279011092780165
:101F2000FF91EF91BF91AF919F918F917F916F91B1
:101F30005F914F913F912F910F900FBE0F901F9087
:101F40001895A0E0B0E0E6EAFFE098C28ED053DF3B
:101F500012D282E01BD280E219D280E21FD22ED2AE
:101F600088E037D2AFD1EBD1789481E0B8DC1F9212
:101F70001F928DE491E09F938F931F9282E38F9342
:101F80001F92C0E4CF938AE591E19F938F930E94C3
:101F90001C032FDB1F921F9283E591E09F938F9389
:101FA0001F9288E28F931F92CF9380E790E19F93D7
:101FB0008F930E941C031DDB1F921F928BE591E003
:101FC0009F938F931F928EE18F931F92CF9385EAF9
:101FD00090E19F938F930E941C030BDB1F921F9233
:101FE00081E691E09F938F931F928AE08F9381E027
:101FF0008F931F928DEA90E19F938F930E941C0311
:102000002DB73EB7285D3F4F0FB6F8943EBF0FBEC9
:102010002DBFEFDAC0E0D0E004E610E065E670E046
:1020200080E090E066DB01DFBC01990F880B990B23
:1020300019D32AE939E943E252E47ED2E5D26B01B1
:102040007C01C617D70731F070936F0160936E0162
:1020500080E045DCB6016F5F7F4FC801CBD1709344
:10206000070160930601E601D9CFE0910801F091E4
:102070000901158289E1848386E0828388E1818376
:102080000895E0910801F0910901908195FFFDCF3D
:1020900086830895E0910801F0910901808187FF0E
:1020A000FDCF86810895E0910801F09109018081BA
:1020B000082E000C990B892F881F8827881F90E015
:1020C0000895CF93DF93EC018991882311F0D9DF34
:1020D000FBCF8DE0D6DF8AE0D4DFDF91CF9108958A
:1020E00067E970E080E090E004DBDDDF892BC1F37D
:1020F000D1DF99278236910571F024F4813691055C
:1021000069F0EECF8436910589F08E36910541F75E
:1021100088E05FD1E5CF88E064D1E2CF809176019D
:10212000909177010097E1F2019708C080917601C4
:1021300090917701843B910598F6019690937701F1
:102140008093760182E0CBDBCBCF80E0B1DB809166
:102150006E0190916F01FFD0F8CFAEE2B0E0E2EBFC
:10216000F0E188C19AE39B839E832EE2298780E277
:102170008A87E6E7EB8775E67C873CE63D873FE6A6
:102180003E8743E64F8749E6488B44E6498B61E644
:102190006A8B4B8B9C8B8D8B55E2598F2A8F8B8F43
:1021A00053E75C8F7D8F72E77E8FEF8F38A399A303
:1021B0008AA38EA387E68FA378A769A74AA73BA720
:1021C0005CA72DA71EA610E300E28AE0E82EF12C02
:1021D00061E070E080E090E0D0DAE0916E01F09193
:1021E0006F012091760130917701C0907401D090F9
:1021F0007501A0907201B09073018091700190916F
:10220000710119831A831C831D831F8318870E8B0A
:102210000F8B188F0BA30CA31DA34E0143E0840E5C
:10222000911C009741F0B701E5D0805DD4018E93F9
:102230004D01CB01F6CF4E01B6E08B0E911CA114DF
:10224000B10449F0C501B701D5D0805DD4018E93AA
:102250004D015B01F4CF5E01B9E0AB0EB11CC114BE
:10226000D10449F0C601B701C5D0805DD5018E9378
:102270005D016B01F4CF6E01B9E1CB0ED11C30973B
:1022800049F0CF01B701B6D0805DF60182936F01AE
:10229000FB01F5CFFE01B6962115310539F0C901D4
:1022A000B701A8D0805D82939B01F6CFCE01019645
:1022B00008DF8ECF82E0FCDA809176019091770181
:1022C00019D0F8CFE0910C01F0910D018081826866
:1022D000808381818A61818387E287838FE086831F
:1022E000118689EF8087E0910E01F0910F0181E066
:1022F000808308959C0121503109233B310548F426
:10230000880F991F880F991F87509F4FA0E0B0E05A
:102310000BC0892B29F087EE93E0A0E0B0E004C069
:1023200089EF90E0A0E0B0E0E0910C01F0910D01A8
:10233000492F5A2F6B2F7727418780870895E09187
:102340000A01F0910B018081836280838181816029
:10235000818314820895E0910A01F0910B012CEC25
:10236000AC01249FC001259F900D112464E670E00C
:1023700041D064830895E0911401F0911501108219
:10238000E0911601F091170110820895E091160175
:10239000F09117019081892B80830895E0911401B9
:1023A000F09115019081892B80830895E0911401AB
:1023B000F09115019081892780830895E0911001A3
:1023C000F09111011082E0911201F091130110823D
:1023D0000895E0911201F09113019081892B80837F
:1023E0000895E0911201F091130190818095982356
:1023F00090830895AA1BBB1B51E107C0AA1FBB1FF6
:10240000A617B70710F0A61BB70B881F991F5A9580
:10241000A9F780959095BC01CD010895052E97FBF5
:1024200016F400940FD057FD05D055D007FC02D00C
:1024300046F408C050954095309521953F4F4F4F39
:102440005F4F089590958095709561957F4F8F4F60
:102450009F4F089562D0A59F900DB49F900DA49FAB
:10246000800D911D112408952F923F924F925F92FB
:102470006F927F928F929F92AF92BF92CF92DF9294
:10248000EF92FF920F931F93CF93DF93CDB7DEB7F9
:10249000CA1BDB0B0FB6F894DEBF0FBECDBF09948D
:1024A0002A88398848885F846E847D848C849B84E4
:1024B000AA84B984C884DF80EE80FD800C811B81F2
:1024C000AA81B981CE0FD11D0FB6F894DEBF0FBE21
:1024D000CDBFED010895A1E21A2EAA1BBB1BFD0181
:1024E0000DC0AA1FBB1FEE1FFF1FA217B307E407F3
:1024F000F50720F0A21BB30BE40BF50B661F771F4B
:10250000881F991F1A9469F760957095809590952A
:102510009B01AC01BD01CF010895A29FB001B39F03
:10252000C001A39F700D811D1124911DB29F700DDC
:10253000811D1124911D08950CD0E6C0DED040F01D
:10254000D5D030F021F45F3F19F0C7C0511110C150
:10255000CAC0EBD098F39923C9F35523B1F3951B67
:10256000550BBB27AA2762177307840738F09F5FB4
:102570005F4F220F331F441FAA1FA9F333D00E2E23
:102580003AF0E0E830D091505040E695001CCAF790
:1025900029D0FE2F27D0660F771F881FBB1F261755
:1025A00037074807AB07B0E809F0BB0B802DBF0128
:1025B000FF2793585F4F2AF09E3F510568F08DC06A
:1025C000D7C05F3FECF3983EDCF38695779567952F
:1025D000B795F7959F5FC9F7880F911D96958795D9
:1025E00097F90895E1E0660F771F881FBB1F6217F8
:1025F00073078407BA0720F0621B730B840BBA0BB6
:10260000EE1F88F7E095089598D088F09F5790F0D6
:10261000B92F9927B751A0F0D1F0660F771F881F07
:10262000991F1AF0BA95C9F712C0B13081F09FD046
:10263000B1E008959CC0672F782F8827B85F39F0E4
:10264000B93FCCF3869577956795B395D9F73EF466
:1026500090958095709561957F4F8F4F9F4F08950E
:10266000E89409C097FB3EF490958095709561952C
:102670007F4F8F4F9F4F9923A9F0F92F96E9BB27E2
:102680009395F695879577956795B795F111F8CF5E
:10269000FAF4BB0F11F460FF1BC06F5F7F4F8F4FC9
:1026A0009F4F16C0882311F096E911C0772321F0BF
:1026B0009EE8872F762F05C0662371F096E8862F57
:1026C00070E060E02AF09A95660F771F881FDAF7AE
:1026D000880F9695879597F9089597F99F6780E8F1
:1026E00070E060E008959FEF80EC089500240A9464
:1026F0001616170618060906089500240A941216DD
:102700001306140605060895092E0394000C11F40F
:10271000882352F0BB0F40F4BF2B11F460FF04C0BC
:102720006F5F7F4F8F4F9F4F089557FD9058440F15
:10273000551F59F05F3F71F04795880F97FB991F20
:1027400061F09F3F79F087950895121613061406DD
:10275000551FF2CF4695F1DF08C01616170618066A
:10276000991FF1CF86957105610508940895E89445
:10277000BB2766277727CB0197F90895FB01DC017A
:102780004150504048F005900D920020C9F701C01B
:102790001D9241505040E0F70895DC0101C06D9357
:1027A00041505040E0F70895AEE0B0E0E9EDF3E1CC
:1027B00069CE8C01FA0186E08C831A83098377FF46
:1027C00002C060E070E8CB0101979E838D83A90170
:1027D000BF01CE01019611D04D815E8157FD0AC027
:1027E0002F813885421753070CF49A01F801E20F44
:1027F000F31F10822E96E4E061CEABE0B0E0E2E0A1
:10280000F4E132CE6C017B018A01FC011782168251
:10281000838181FFBFC1CE0101963C01F601938106
:10282000F70193FD859193FF81917F01882309F43E
:10283000ADC1853239F493FD859193FF81917F017C
:10284000853221F4B60190E0C0D1E8CF912C212C43
:10285000312CFFE1F315D8F08B3279F038F4803267
:1028600079F08332A1F4232D20611DC08D3261F0F7
:10287000803369F4232D216016C0832D8260382EA9
:10288000E32DE4603E2E2AC0F32DF8601DC037FC16
:102890002DC020ED280F2A3040F08E32B9F436FCDE
:1028A00075C1232D2064322E19C036FE06C08AE081
:1028B000989E200D1124922E11C0EAE02E9E200D2C
:1028C0001124222EF32DF0623F2E08C08C3621F405
:1028D000832D8068382E02C0883641F4F70193FDBD
:1028E000859193FF81917F018111B3CF982F9F7DB7
:1028F0009554933028F40C5F1F4F9FE399830DC0CC
:10290000833631F0833771F0833509F055C020C02C
:10291000F801808189830E5F1F4F88248394912C56
:10292000530112C02801F2E04F0E511CF801A080A3
:10293000B18036FE03C0692D70E002C06FEF7FEFFB
:10294000C50138D14C018201F32DFF773F2E15C010
:10295000280122E0420E511CF801A080B18036FE11
:1029600003C0692D70E002C06FEF7FEFC50117D182
:102970004C01F32DF0683F2E820133FC19C0822DEB
:1029800090E088169906A0F4B60180E290E01DD18F
:102990002A94F5CFF50137FC859137FE81915F01CF
:1029A000B60190E012D121102A9421E0821A9108F8
:1029B0008114910479F7E1C0843611F0893639F534
:1029C000F80137FE07C060817181828193810C5FBD
:1029D0001F4F08C060817181072E000C880B990B76
:1029E0000E5F1F4FF32DFF763F2E97FF09C0909586
:1029F0008095709561957F4F8F4F9F4FF0683F2E68
:102A00002AE030E0A3011DD1882E861844C0853706
:102A100031F4232D2F7EB22E2AE030E025C0932DF5
:102A2000997FB92E8F36C1F018F4883579F0AEC091
:102A3000803719F0883721F0A9C0E92FE061BE2E58
:102A4000B4FE0DC0FB2DF460BF2E09C034FE0AC0D9
:102A5000292F2660B22E06C028E030E005C020E114
:102A600030E002C020E132E0F801B7FE07C060812B
:102A70007181828193810C5F1F4F06C060817181DB
:102A800080E090E00E5F1F4FA301DBD0882E8618F8
:102A9000FB2DFF773F2E36FE0DC0232D2E7FA22E5D
:102AA000891458F434FE0BC032FC09C0832D8E7E8D
:102AB000A82E05C0B82CA32C03C0B82C01C0B92C7B
:102AC000A4FE0FC0FE01E80DF11D8081803321F4CA
:102AD0009A2D997EA92E09C0A2FE06C0B394B39484
:102AE00004C08A2D867809F0B394A3FC10C0A0FE20
:102AF00006C0B21480F4280C922C9B180DC0B2149E
:102B000058F4B60180E290E060D0B394F8CFB214EC
:102B100018F42B1802C0982C212CA4FE0FC0B6016B
:102B200080E390E052D0A2FE16C0A1FC03C088E76B
:102B300090E002C088E590E0B6010CC08A2D86784E
:102B400051F0A1FE02C08BE201C080E2A7FC8DE241
:102B5000B60190E03AD0891430F4B60180E390E0F9
:102B600034D09A94F8CF8A94F301E80DF11D808156
:102B7000B60190E02AD08110F6CF222009F44ECE83
:102B8000B60180E290E021D02A94F7CFF601868149
:102B9000978102C08FEF9FEF2B96E2E181CCFC0181
:102BA0000590615070400110D8F7809590958E0F78
:102BB0009F1F0895FC016150704001900110D8F7EB
:102BC000809590958E0F9F1F08950F931F93CF931D
:102BD000DF93FB01238121FD03C08FEF9FEF2CC00A
:102BE00022FF16C046815781248135814217530741
:102BF00044F4A081B1819D012F5F3F4F3183208339
:102C00008C93268137812F5F3F4F3783268314C0F3
:102C10008B01EC01FB010084F185E02D0995892BE6
:102C2000E1F6D80116968D919C911797019617960B
:102C30009C938E931697CE01DF91CF911F910F91A8
:102C40000895FA01AA27283051F1203181F1E89442
:102C50006F936E7F6E5F7F4F8F4F9F4FAF4FB1E08F
:102C60003ED0B4E03CD0670F781F891F9A1FA11D8A
:102C7000680F791F8A1F911DA11D6A0F711D811D8B
:102C8000911DA11D20D009F468943F912AE0269F50
:102C900011243019305D3193DEF6CF010895462FAF
:102CA0004770405D4193B3E00FD0C9F7F6CF462F90
:102CB0004F70405D4A3318F0495D31FD40524193F9
:102CC00002D0A9F7EACFB4E0A695979587957795B6
:102CD0006795BA95C9F700976105710508959B013D
:102CE000AC010A2E06945795479537952795BA95C6
:0E2CF000C9F7620F731F841F951FA01D089562
:102CFE00C000060078006400C000B00080006F00C5
:102D0E002B002A0025002400201B5B306D1B5B323C
:102D1E004A1B5B3B48000A467265654D454D3A2598
:102D2E006420286279746573290A0A006E756C6CCA
:102D3E0070006D61696E002F6465762F0073657289
:102D4E00766F00636F6E74726F6C006D6F746F725E
:0A2D5E00007265706F72746500006A
:00000001FF
